:020000040800F2
:1000000028420024AD0200087D4C00089D450008F0
:10001000794C000833080008056100080000000062
:100020000000000000000000000000007550000803
:1000300055080008000000007F4C000877500008B9
:10004000C7020008C7020008C7020008C70200086C
:10005000C7020008C7020008C7020008C70200085C
:10006000C7020008C7020008C7020008C70200084C
:10007000C7020008C7020008C7020008C70200083C
:10008000C7020008C7020008C7020008C70200082C
:10009000C7020008C7020008C7020008C70200081C
:1000A000C7020008C7020008C7020008C70200080C
:1000B000F15100080152000811520008C70200085F
:1000C000C7020008C7020008C7020008C7020008EC
:1000D000C7020008C7020008C7020008F560000850
:1000E000C7020008C702000800000000C70200089D
:1000F000C7020008C7020008C7020008C7020008BC
:10010000C7020008C7020008C7020008C7020008AB
:10011000C7020008C7020008C7020008C70200089B
:10012000C7020008C7020008C7020008C70200088B
:10013000C7020008C7020008C7020008C70200087B
:1001400000000000000000000000000000000000AF
:10015000C7020008C7020008C7020008C70200085B
:10016000C7020008C7020008C7020008C70200084B
:10017000C7020008C7020008C7020008000000000C
:10018000C7020008C7020008C7020008C70200082B
:10019000C7020008C7020008C7020008C70200081B
:1001A000C7020008C7020008C7020008C70200080B
:1001B000C7020008C7020008C7020008C7020008FB
:1001C000C7020008C7020008C7020008C7020008EB
:1001D000C7020008C7020008C7020008C7020008DB
:1001E000C7020008C7020008C7020008C7020008CB
:1001F000C7020008C7020008C7020008C7020008BB
:10020000C7020008C7020008C7020008C7020008AA
:10021000C7020008C7020008C7020008C70200089A
:10022000C7020008C7020008C7020008000000005B
:10023000C7020008C702000800000000C70200084B
:10024000C7020008C7020008C7020008C70200086A
:10025000C7020008C7020008C7020008C70200085A
:10026000C7020008C7020008C7020008C70200084A
:10027000C7020008C7020008C7020008000000000B
:10028000C702000800000000C702000800000000CC
:1002900000000000C7020008DFF80CD000F048FAA8
:1002A00000480047516A0008284200240648804759
:1002B00006480047FEE7FEE7FEE7FEE7FEE7FEE74B
:1002C000FEE7FEE7FEE7FEE75D5100089902000841
:1002D0002DE9F05F0546002092469B46884606467B
:1002E000814640241BE0284641464746224600F00E
:1002F00057F853465A46C01A914110D31146184632
:10030000224600F03EF82D1A67EB01084F462246C0
:100310000120002100F035F817EB00094E41201EA6
:10032000A4F10104DFDC484631462A464346BDE8D5
:10033000F09FD2B201E000F8012B491EFBD27047BA
:100340000022F6E710B513460A4604461946FFF7A1
:10035000F0FF204610BD30B50B460146002020229C
:10036000012409E021FA02F59D4205D303FA02F5C2
:10037000491B04FA02F52844151EA2F10102F1DC22
:1003800030BD202A04DB203A00FA02F10020704739
:100390009140C2F1200320FA03F3194390407047C3
:1003A000202A04DB203A21FA02F00021704721FACA
:1003B00002F3D040C2F12002914008431946704731
:1003C0002DE9FE4F804681EA0300C00F0C460090E5
:1003D00021F0004123F00045B8EB0200A94105D20D
:1003E0004046214690461C460B46024623F00040FC
:1003F000104347D0270DC7F30A00C3F30A510290F8
:10040000401A019040286BDAC3F3130040F4801BBC
:100410000098924620B10023D2EB030A63EB0B0B4A
:1004200001985946C0F140025046FFF7AAFF064620
:100430000D4650465946019A00F08CF910EB080021
:100440006141002487EA115284EAE7731A4340D0DD
:10045000009A62B3019A012A4FEA075215DC001B89
:1004600061EB02014FF0004202EA0752CDE900427F
:10047000001C41F5801132462B4600F08CF903B088
:10048000BDE8F08F40462146F9E7001B61EB020111
:10049000001C41F5801300185B412018A2F50017DD
:1004A00047EB030140EAD570B6196D4111E06D08C4
:1004B0004FEA360645EAC0754FEA0752001B61EB6A
:1004C0000201001C41F5801149084FEA3000001973
:1004D000514132462B4603B0BDE8F04F00F04CB915
:1004E0000098012240000023D0EB020263EBE0738E
:1004F000009821464FEAE074B8EB000061EB04017C
:10050000E9E783F000435BE781F0004158E72DE91C
:10051000FE4F81EA030404F0004421F000410094FE
:100520004FF0000B23F0004350EA01045ED052EA82
:1005300003045BD0C3F30A54C1F30A552C44A4F25C
:10054000F3340194A0FB0254C1F3130141F4801170
:10055000C3F3130343F4801301FB024400FB034E77
:10056000840A970A44EA815447EA8357A4FB076840
:1005700002958D0A05FB07854FEA932C04FB0C546A
:100580002705029D4FEA065847EA1637B5EB0805DE
:100590006EEB070C870E920E47EA811742EA831230
:1005A000A7FB0201B6EB0B0164EB00042B0D43EA41
:1005B0000C335E1844EB1C50DA465146E7FB02014F
:1005C000C5F313044FEA0B3343EA14534FEA0432E2
:1005D000019C43EA0603A4F10C040294009CCDE9BB
:1005E00000B400F0D8F803B0BDE8F08F0020014659
:1005F000F9E72DE9F04D81EA030404F0004B21F006
:10060000004514464FF0000A23F0004150EA05026D
:1006100020D054EA01021DD0C5F30A570246C5F3A3
:100620001303C1F31300C1F30A5640F4801543F4D9
:100630008013A7EB0608101BD64608F2FD3873EBB3
:10064000050002D308F1010801E092185B41B8F1FE
:10065000000F03DA00200146BDE8F08D00204FF4C2
:100660008011064684460EE0171B73EB050705D381
:10067000121B63EB050306434CEA010C49084FEAE1
:10068000300092185B4150EA0107EDD152EA0300B5
:1006900012D082EA040083EA0501084305D0101B4A
:1006A000AB4106D20122002306E000224FF00043B6
:1006B00002E06FF0010253101AEB06004CEB0851F8
:1006C00010EB0A0041EB0B01BDE8F04D00F054B80F
:1006D000C1F30A52C1F3130140F2FF3341F4801118
:1006E0009A4202DA00200146704740F233439A42B0
:1006F000A2F2334202DC5242FFF752BEFFF741BE84
:1007000030B5041E71F1000404DB4FF00044404298
:1007100064EB0101141E73F1000405DB1C464FF06D
:100720000043524263EB0403994208BF904230BD3C
:10073000064C074D06E0E06840F0010394E807002E
:1007400098471034AC42F6D3FFF7AAFD4C6E000870
:100750006C6E0008202A06DBCB17203A41FA02F023
:1007600043EAE07306E041FA02F3D040C2F120020E
:10077000914008431946704710B5141E73F10004E8
:1007800008DA401C41F1000192185B411A4301D183
:1007900020F0010010BD2DE9F04D92469B4611B1AD
:1007A000B1FA81F202E0B0FA80F220329046FFF70F
:1007B000E8FD04460F4640EA0A0041EA0B015346B1
:1007C0005A46084313D0114653EA010019D0C8F124
:1007D00040025046FFF7E4FD05460E465046594696
:1007E0004246FFF7CEFD084305D0012004E0204635
:1007F0003946BDE8F08D0020054346EAE0762C43FB
:1008000037430A986305E40AA0EB08000022FD0ABA
:1008100044EA47540A3002D500200146E9E70105C1
:1008200010196941DDE9084500196941BDE8F04D3D
:10083000A2E700BFFEE7000010B504F0DDFB04F006
:100840008DFB0348006840F004000149086010BDBA
:100850009CEF00E0704710B5002210E002EB42046C
:10086000036903EBC40100230B604B608B60CB601A
:100870000B614B6100F12C0343F82210521C042A37
:10088000ECD30024C46304644464C4648464032417
:10089000036803F58053C3F83041036803F58053C0
:1008A0000469C3F81C4103694833046804F58054A3
:1008B000C4F8283110BD10B500220EE002EB42044E
:1008C000C36803EBC40100230B604B608B60CB60FB
:1008D00000F1180343F82210521C042AEED300241E
:1008E00084620324036803F58053C3F82C41036832
:1008F00003F58053C468C3F81441036803F58053BB
:10090000C468C3F8204110BD10B5A2B00446012050
:100910008DF83300002012908DF841008DF84300CF
:1009200001208DF828008DF856008DF83200002047
:100930008DF84C0001208DF8840040030F900020BA
:100940008DF85C0018908DF885008DF886004FF4C6
:10095000C360169000208DF830000B9001208DF8B8
:10096000350000208DF836008DF840001D901B905A
:1009700014908DF864008DF87A0001208DF8420003
:100980002020209001208DF8440000208DF8550093
:100990004FF0405009904FF480400E9000208DF8A9
:1009A000310002201F9000208DF878008DF879002A
:1009B0008DF8540001208DF8340000201A90012099
:1009C0008DF8700009A9204600F02CFB01208DF85D
:1009D00004000290002000908DF81C008DF80D009E
:1009E0008DF80C004FF40010069000208DF81400D4
:1009F0004FF40010049000208DF81D004FF4067095
:100A000008906946204600F0AFFA22B010BD000001
:100A100070B506463068D0F8004224F4706402F0E5
:100A200015FD05461348854205D31348854202D279
:100A300044F400741AE01048854205D30F488542FB
:100A400002D244F4407411E00C48854203D30C48B0
:100A5000854200D20AE00A48854205D3094885420A
:100A600002D244F4807401E044F480643068C0F839
:100A7000004270BD002D3101C00E160200879303A5
:100A800000E1F50580D1F0080020704710B501F0B5
:100A900099FA10BD08B5074803464FF4A57206A1A0
:100AA0000090084805F030FB074801F029F80020C5
:100AB00008BD00006E6B000831363A35333A3231EA
:100AC00000000000806C000880000024F8B5044697
:100AD0000D4616460A4803464FF4B27209A100902B
:100AE0000B4805F011FB33462A462146094800F021
:100AF000B9FF10B14FF0FF30F8BD0020FCE7000057
:100B00007E6B000831363A35333A3231000000004E
:100B1000806C000880000024F8B504460D46164697
:100B20000A4803464FF4BB7209A100900B4805F038
:100B3000EBFA33462A462146094801F0D7F810B1AE
:100B40004FF0FF30F8BD0020FCE70000916B00087B
:100B500031363A35333A323100000000806C0008FB
:100B60008000002410B586B00124002002900E48B9
:100B700000F038FE90B104F0B3F903A90A4800F080
:100B8000F8FC02A9084800F05FFD0398074B4FF4FA
:100B9000D17207A1009009A005F0B6FA024800F052
:100BA0009DFB204606B010BD80000024A56B000808
:100BB00031363A35333A3231000000003E3E546956
:100BC0006D653A2025732C204C696E653A202530DE
:100BD00035642C2046756E6374696F6E3A202573F8
:100BE0003A206C6F67696E666F3A2062756666655B
:100BF000723A2523780A000070B58CB005460C4681
:100C0000012600950194002002900749C1F808D000
:100C10000846446004F064F900220349034800F0E8
:100C2000F5FF30460CB070BD2C000024800000247D
:100C30002DE9F04706460B46914606F118052A694C
:100C4000D5F810C0002755F822109C68C86800F03D
:100C50000040B0F1004F02D10220BDE8F0871878C3
:100C600000F00400C8B3C8686FF30F00D3F824A0E5
:100C700040EA0A00C860C86840F48030C860306844
:100C8000006E40F48010D6F800A0CAF86000187812
:100C900000F0080008B3B3F82CA088686AF31F407E
:100CA0008860C86840F40030C860C86820F44020FC
:100CB000D3F830A040EA0A00C8603068406E40F4C3
:100CC0008010D6F800A0CAF864003068006D40F0CB
:100CD0008060D6F800A0CAF85000187800F0100024
:100CE00058B188686FF30D00D3F818A040EA0A00E5
:100CF0008860C86840F08060C860187800F0040020
:100D000018B9187800F01000F0B1C86840F08040C1
:100D1000C860C86840F00040C86000BF521C042A88
:100D200000D3121F00BF55F822107F1CC86800F0C6
:100D30000040B0F1004F07D155F82C10C86820F0E2
:100D40000040C860022088E77F1C2068086088682F
:100D50006FF30D00D4F804A040EA0A008860A06890
:100D600068B1A468206848608868DFF8F8A100EAE4
:100D70000A00B4F804A040EA0A40886007E00020B6
:100D800048608868DFF8DCA100EA0A00886018780B
:100D900000F01000A0B1C86820F4F000B3F820A063
:100DA00040EACA40C860C8686FF31100D3F81CA0BD
:100DB00040EA0A00C860C86840F48020C8601FE0AC
:100DC000C8686FF30E00D3F804A040EA0A00C860B8
:100DD000187800F0010038B1C86820F44030D3F82A
:100DE00014A040EA0A00C860187800F0200038B16A
:100DF000C86820F04060D3F810A040EA0A00C8603C
:100E0000187800F0040038B1886820F44040D3F826
:100E100028A040EA0A008860C86840F00050C86016
:100E2000C86820F08040C860C86840F00040C860D2
:100E3000187800F0020038B1C86820F06070D3F86C
:100E40000CA040EA0A00C86076E000BF521C042AE9
:100E500000D3121F00BF55F82210C86800F00040F0
:100E6000B0F1004F17D1624655F822104FF000083C
:100E70000DE0C86820F00040C86000BF521C042A82
:100E800000D3121F00BF55F8221008F10108B84521
:100E9000EFD30220E1E67F1CA46820680860886820
:100EA0006FF30D00D4F804A040EA0A008860A0683F
:100EB00068B1A468206848608868DFF8A8A000EAE4
:100EC0000A00B4F804A040EA0A40886007E0002065
:100ED00048608868DFF88CA000EA0A00886018780B
:100EE00000F0100060B1C8686FF31100D3F81CA0C7
:100EF00040EA0A00C860C86840F48020C86013E077
:100F0000C8686FF30E00D3F804A040EA0A00C86076
:100F1000187800F0010038B1C86820F44030D3F8E8
:100F200014A040EA0A00C860C86840F00040C860E9
:100F3000C86820F08040C860A068002885D1B9F159
:100F4000000F04D0886840F00040886003E08868A3
:100F500020F000408860C86840F08050C8602A6176
:100F600000207AE6FFFF00C010B5036803F5805348
:100F70001B6847F60204A3430C682343046804F586
:100F8000805423600C798B6843EA04330C7B43EA7A
:100F9000C432036803F580535B684DF20104A34338
:100FA0001343046804F5805463604C7B0B6A43EA86
:100FB0000442036803F58053D3F80031164C2340F4
:100FC0001343046804F58054C4F800310C7D0B69A8
:100FD00043EA04134C7F43EA0432036803F5805369
:100FE000D3F804310D4C23401343046804F58054B6
:100FF000C4F804310C7F8B6943EAC472036803F5BB
:101000008053D3F80831064C23401343046804F599
:101010008054C4F8083110BD00C0FEFFEFEFC0FFE0
:10102000FFFFC07F10B50C688B6823430C7943EA3F
:10103000C4630C7B43EAC4534C7B43EA84538C7BEC
:1010400043EA4453CC7B43EA04530C7C0CB901249F
:1010500000E0002443EAC4434C7C0CB9012400E0C6
:10106000002443EA44438C7C43EA04434C69234311
:101070008C6923430C7F43EA04334C7F43EAC42347
:101080008C7F0CB9012400E0002443EA8423CC7F48
:1010900043EA442391F820400CB9012400E00024E5
:1010A00043EA042351F8244F23430C7943EA041301
:1010B0008C6843EA040203681B683D4C23401343D9
:1010C000046823600B7E5B060C7D43EA04630C7BA3
:1010D00043EA84434C7B43EA44438C7B24390CB978
:1010E000012400E0002443EA04434C6B43EA040279
:1010F00003685B682F4C234013430468636091F8D6
:1011000040404B6C43EA04220368DB6840F20F1452
:10111000A34313430468E36091F854400B6D43EA22
:10112000440391F84C400CB9012400E0002443EA48
:10113000C41331F8484F43EA044203681B6F4FF66B
:101140000D7423401343046823678B7B4C7B43EA75
:1011500044020368D3F8903023F003031343046878
:10116000C4F890300368D3F8003D23F072030C6993
:1011700023430468C4F8003D0C7E4B6948390CB920
:10118000012400E0002443EA841391F8614043EA1B
:10119000041391F8624043EAC4020368D3F8303D77
:1011A00023F07B0313430468C4F8303D10BD0000F6
:1011B000838004000080F8C07047000010B504462A
:1011C0000CB9012010BD94F83500022803D080200E
:1011D00060650120F6E734492068884205D3334929
:1011E0002068884201D8012000E00020C0B104201E
:1011F00084F835002C49206888420AD32B4920689E
:10120000884206D82068006820F001002168086044
:1012100048E02068006820F001002168086041E093
:101220002068006820F00E00216808601E492068D0
:1012300088420AD31D492068884206D82068006881
:1012400020F001002168086005E02068006820F0B7
:10125000010021680860206E006820F48070216E13
:10126000086094F85C100120884011490860D4E9B6
:1012700019104860E06E40B1E06E006820F48070A4
:10128000E16E0860D4E91C10486000BF002084F8BB
:10129000340000BF012084F83500206D10B12046D5
:1012A000216D884700208DE710000240B8040240FD
:1012B0000454025870B5044600F084FE06462546E4
:1012C000681C10B104480078054400BF00F07AFEA5
:1012D000801BA842FAD370BD2000002470B50546DB
:1012E00005F12C02536952F823109669906908B9E8
:1012F000012070BDD06900B1761C002423E008698C
:1013000008604FF08070C860486928B148698860FB
:10131000C86840F00070C860C86840F00040C8600D
:10132000106A18B1C86840F08040C8609069401EDB
:10133000A04207D900BF5B1C042B00D31B1F00BFBA
:1013400052F82310641CB442D9D3286800F58050A9
:10135000C0F828110020906100BFCAE730B50446EC
:101360000D4604F12C0050F825100AB1042D02D3CB
:101370000120606530BD0A600A61C86840F0807075
:10138000C8602BB18B604B61C86840F00070C860CA
:10139000C86840F00040C8600020EBE7024609B989
:1013A000012070471068006800F00C00C8621068E7
:1013B0000068C0F3001081F828001068006800F091
:1013C0006000486210680068C0F3002080F00100EF
:1013D00081F8200010680068C0F34020C8771068CA
:1013E0000068C0F3802080F00100887710680068F2
:1013F000C0F3C020487710680068C0F30030087759
:101400001068006800F4005088611068006800F4FB
:101410008040486110680068C0F30040887410681C
:101420000068C0F3404080F0010048741068006814
:10143000C0F3C04080F00100087410680068C0F379
:101440000050C87310680068C0F34050887310687B
:101450000068C0F38050487310680068C0F3C05043
:1014600008731068006800F0E06088601068006829
:10147000C0F3C06008711068006800F0E0400860C8
:1014800010684068C0F30D00486310684068C0F3FE
:10149000004080F0010081F8320010684068C0F31D
:1014A000404081F8310010684068C0F3804081F806
:1014B000300010684068C0F3006081F838001068A0
:1014C0004068C0F34460C8631068C068C0F300207F
:1014D00081F840001068C06800F00F004864106890
:1014E000006FC0F3400081F854001068006FC0F333
:1014F000C01080F0010081F84C001068006F00F00F
:10150000700008651068006F000C88641068D0F8DF
:10151000900000F0010081F856001068D0F89000AB
:10152000C0F3400081F855001068D0F8000D00F0BD
:10153000720088651068D0F8300D00F02300C8658F
:101540001068D0F8300DC0F3C00081F86200106858
:10155000D0F8300DC0F3001081F861001068D0F8A9
:10156000300DC0F3801080F0010081F86000002091
:1015700017E72DE9F84F06468B4606F12C07D7F8FA
:1015800014800020009057F828505C46B86930B9A4
:10159000304600F027F910B90120BDE8F88F4FF070
:1015A000000A27E0686978B10CB90120F5E72869DD
:1015B000206070696060A4680CB90120EDE768697B
:1015C00020607069606003E0286920607069606075
:1015D000E868C0F30E00009000BF08F10108B8F100
:1015E000040F01D3A8F1040800BF57F82850A468DD
:1015F0000AF1010AB869401E5045D3D80CB9012040
:10160000CBE7E868C0F30E010098A1EB0009706910
:10161000484504D328692060C4F8049012E0686942
:1016200070B12869206070696060A4680CB90120FD
:10163000B3E7686920607069A9EB0000606001E0B1
:101640000120AAE70020A8E72DE9F04180460E46D8
:1016500008F12C046569A06930B9404600F0C2F871
:1016600010B90120BDE8F08100BFA069401E05440B
:10167000042D00D32D1F00BF54F82570F868C0F367
:101680000E0030600020EDE738B504460CB90120AB
:1016900038BD94F8510010B9204600F023F92320FA
:1016A00084F8510000BF4D48006840F002004B49EB
:1016B00008600846006800F00200009000BF00BF0C
:1016C000207A18B9002002F089FB03E04FF40000F3
:1016D00002F084FB206800F58050006840F00101B2
:1016E000206800F58050016000F06CFC05460CE0BD
:1016F00000F068FC401BB0F5FA7F06D90420606555
:10170000E02084F851000120C2E7206800F58050F5
:10171000006800F001000028EAD12046FFF778F9C0
:1017200001F094FE2E49B0FBF1F0401E2168C1F893
:10173000DC002046FFF7E8F8206800F58050D0F87C
:10174000000120F4E01040F40021206800F58050F2
:10175000C0F80011207D00F0030030B10120606569
:10176000E02084F85100012092E7206800F58050C5
:10177000D0F8080147F6FE718843616940EA4101EB
:10178000206800F58050C0F808112046FFF793F854
:101790002046FFF760F8606800796168497940EA9F
:1017A00001202168C1F800036068C0780006616804
:1017B000897840EA01406168497840EA012061681F
:1017C000097808432168C1F80403002060651020EF
:1017D00084F8510084F85200002059E7F44402587C
:1017E00040420F00F0B5074607F12C03196953F882
:1017F0002120002500240026986908B10020F0BDB2
:101800003DE06D1CD06800F0805000B3641C012CDA
:1018100000D10E4600BF491C042900D3091F00BF98
:1018200053F82120D06800F0004058B9D06800F08B
:10183000804038B10120D86100BF491C042900D381
:10184000091F00BF19615E619C610120D7E7D06864
:1018500000F0005050B10E46012400BF491C04297D
:1018600000D3091F00BF53F8212008E0641C00BF0B
:10187000491C042900D3091F00BF53F82120D06858
:1018800000F0004008B9042DBBD334B3314653F8FF
:10189000212000251FE0106910604FF08070D0609B
:1018A000506928B150699060D06840F00070D060F5
:1018B000D06840F00040D060186A18B1D06840F09D
:1018C0008040D06000BF491C042900D3091F00BF1D
:1018D00053F821206D1CA542DDD30020986100BF84
:1018E0008DE7000010B586B00446142101A8FEF76C
:1018F00027FD5649206888427ED100BF54480068C1
:1019000040F40040524908600846006800F4004076
:10191000009000BF00BF00BF0846006840F4803060
:1019200008600846006800F48030009000BF00BFE7
:1019300000BF0846006840F40030086008460068B0
:1019400000F40030009000BF00BF00BF40480830E6
:10195000006840F004003E4908310860084600680D
:1019600000F00400009000BF00BF00BF0846006800
:1019700040F0010008600846006800F00100009097
:1019800000BF00BF00BF0846006840F002000860CA
:101990000846006800F00200009000BF00BF00BFD2
:1019A0000846006840F0400008600846006800F003
:1019B0004000009000BF00BF022001900290002074
:1019C000039004900B20059001A9224800F0CEF965
:1019D00086200190022002900020039002200490B3
:1019E0000B20059001A91C4800F0C0F9302001909F
:1019F00002200290002000E026E0039002200490E4
:101A00000B20059001A9134800F0B0F94FF40050E5
:101A100001900220029000200390022004900B20ED
:101A2000059001A90D4800F0A1F94FF42050019054
:101A30000220029000200390022004900B200590C9
:101A400001A9074800F092F906B010BD00800240DD
:101A5000D8440258000802580000025800040258F6
:101A6000001802582DE9F04704460F469046994663
:101A70002068D0F8000200F0010010B10120BDE89C
:101A8000F0872068D0F8005225F0787040EA47557A
:101A900025F4F81040EA084545F00C0545F001052D
:101AA0002068C0F8005200F08DFA064607E000F00A
:101AB00089FA801BB0F57A7F01D90120DFE7206821
:101AC000D0F8000200F001000028F0D12068D0F822
:101AD000040280B2C9F800000020D0E770B50446C7
:101AE0000D460DB9012070BD94F85200102805D1A3
:101AF00029462046FFF796FA0020F4E70120F2E796
:101B000070B506463068D0F8004224F4706401F0E5
:101B10009DFC05461348854205D31348854202D2F1
:101B200044F400741AE01048854205D30F488542FA
:101B300002D244F4407411E00C48854203D30C48AF
:101B4000854200D20AE00A48854205D30948854209
:101B500002D244F4807401E044F480643068C0F838
:101B6000004270BD002D3101C00E160200879303A4
:101B700000E1F50580D1F008014691F851001028E8
:101B800042D1232081F851000868006840F002002B
:101B90000A6810600868006840F001000A68106078
:101BA0000868D0F8000D40F001000A68C2F8000D86
:101BB000086800F58050D0F8040140F00102086880
:101BC00000F58050C0F80421086800F58050D0F876
:101BD000080140F00102086800F58050C0F80821B3
:101BE000086800F58050D0F8600140F48172086800
:101BF00000F58050C0F86021102081F851002220AB
:101C000081F85200002070470120FCE72DE9F041E7
:101C100004460F46154637B9606D40F00100606517
:101C20000120BDE8F08194F8510010285CD1002219
:101C300039462046FEF7FCFF28B1606D40F00200F7
:101C400060650120EDE704F11800A16A50F82180D9
:101C500000BFA06A401CA062A06A042802D3A06A48
:101C6000001FA06200BF04F11800A16A50F8211003
:101C7000206800F58050C0F8201100F0A3F9064656
:101C800027E0206800F58050D0F8600100F4805013
:101C900070B1606D40F008006065206800F580500C
:101CA000D0F86001A065E02084F851000120B8E779
:101CB000681C70B100F086F9801BA84200D845B9B5
:101CC000606D40F004006065102084F85100012030
:101CD000A7E7D8F80C0000F000400028D1D1102070
:101CE00084F8510000209CE701209AE72DE9F04795
:101CF00005460F46904699462868D0F8000200F045
:101D0000010010B10120BDE8F0872868D0F800423A
:101D100024F0787040EA475424F4F81040EA08446C
:101D200024F00C00041D44F001041FFA89F00D4951
:101D300008600D48C0F8004200F044F9064607E08C
:101D400000F040F9801BB0F57A7F01D90120DAE775
:101D50002868D0F8000200F001000028F0D100BF90
:101D6000D1E700000482024000800240F8B502463C
:101D70000B460021002600240020824D00BFFCE01D
:101D8000012707FA01F61F6807EA0604B4427CD16E
:101D90005F68022F02D05F68122F1AD14FEAD10C70
:101DA00002F1200757F82C004F074FEAD76C0F2796
:101DB00007FA0CF7B8434FEA417C4FEADC6C1F6925
:101DC00007FA0CF738434FEAD10C02F1200747F825
:101DD0002C0010684FEA410C032707FA0CF7B843B0
:101DE0001F7907F003074FEA410C07FA0CF7384355
:101DF00010605F68012F08D05F68022F05D05F6810
:101E0000112F02D05F68122F17D190684FEA410C52
:101E1000032707FA0CF7B8434FEA410CDF6807FACB
:101E20000CF738439060506801278F40B8431F7902
:101E3000C7F300178F4038435060D0684FEA410C19
:101E4000032707FA0CF7B8434FEA410C9F6807FADB
:101E50000CF73843D0605F6807F08057B7F1805FB8
:101E600095D100BF484F3F6847F00207DFF818C11F
:101E7000CCF8007067463F6807F00207009700BF84
:101E800000BF424F4FEA910C00E075E057F82C007C
:101E90008F074FEA177C0F2707FA0CF7B8433C4F20
:101EA000BA4201D100272DE03A4FBA4201D10127B1
:101EB00028E0394FBA4201D1022723E0374FBA4216
:101EC00001D103271EE0364FBA4201D1042719E0A1
:101ED000344FBA4201D1052714E0334FBA4201D141
:101EE00006270FE0314FBA4201D107270AE0304FF1
:101EF000BA4201D1082705E02E4FBA4201D1092785
:101F000000E00A274FEA817C4FEA1C7C07FA0CF7B5
:101F100038431E4F4FEA910C47F82C002868A04325
:101F20005F6807F48037B7F5803F00D12043286011
:101F30006868A0435F6807F40037B7F5003F00D139
:101F4000204368604FF0B0473868A0435F6807F4EB
:101F50008017B7F5801F00D120434FF0B04738609D
:101F60007868A0435F6807F40017B7F5001F00D139
:101F700020434FF0B0477860491C1029FFF400AFB0
:101F8000F8BD000080000058F444025808040058CE
:101F9000000002580004025800080258000C0258C1
:101FA000001002580014025800180258001C025871
:101FB00000200258002402580AB1018300E0418346
:101FC00070470000014800687047000018000024B6
:101FD00003480068034909780844014908607047CC
:101FE000180000242000002410B5032000F0F8F8A9
:101FF000002000F007F808B1012010BD00F08CF8B7
:102000000020FAE770B504460E4800784FF47A7164
:10201000B1FBF0F00C490968B1FBF0F5284601F07E
:10202000E7FE08B1012070BD102C07D20022214626
:10203000501E00F097F80548046001E00120F2E727
:102040000020F0E720000024240000241C000024CD
:102050004178154A11600178F9B1121D416811608B
:10206000017B0907C27A41EA0261827A41EAC241F0
:10207000427B41EA8241827B41EA4241C27B41EAA2
:102080000241427A41EA0221027A41EA420102789F
:102090001143054A0832116005E00021024A121D71
:1020A0001160121D1160704798ED00E000BF00BF85
:1020B00000BFBFF35F8F00BF00BF00BF05480068CF
:1020C00020F4803003490860002002497031086024
:1020D0007047000024ED00E040F001010D4A11605E
:1020E0000C497039096841F480310A4A703A11602C
:1020F00000BF00BF00BFBFF34F8F00BF00BF00BFD6
:1021000000BF00BF00BFBFF36F8F00BF00BF00BFA5
:102110007047000094ED00E008B500BF0848006873
:1021200040F00200064908600846006800F002001E
:10213000009000BF00BF052000F052F808BD00006D
:10214000F444025801460846002809DB00F01F034A
:1021500001229A4043099B0003F1E023C3F80021C8
:1021600000BF70472DE9F05F80460D46164603F02C
:10217000DBFF074639462A46334601F00700C0F127
:10218000070ABAF1040F02D94FF0040A01E0C0F1C6
:10219000070AD14600F1040ABAF1070F02D24FF044
:1021A000000A01E0A0F1030AD4464FF0010A0AFA3E
:1021B00009FAAAF1010A0AEA020A0AFA0CFA4FF02D
:1021C000010B0BFA0CFBABF1010B0BEA030B4AEA18
:1021D0000B042146404603F0AFFFBDE8F09F00002E
:1021E00000BF00F00702064B19684FF6FF031940C5
:1021F000044B0B4343EA0221014B196000BF7047B7
:102200000CED00E00000FA0510B501F067F909498E
:10221000096801F470614FF4807292FAA2F2B2FA86
:1022200082F2D140044A515CC84004490860084623
:10223000006810BD18440258106C000824000024E7
:1022400010B501F003F90749096801F07001102287
:1022500092FAA2F2B2FA82F2D140034A515CC8402B
:1022600010BD000020440258106C000870B50146F3
:1022700000220120002300249FED811AB0EE410AC4
:102280009FED7F1AF0EE410A7E4D2D6805F00302A6
:102290007C4D2D68C5F305307A4D2D1D2D6805F058
:1022A0001003784D14352D68C5F3CC0515FB03F5E7
:1022B00001EE105AB8EE411AB0EE410A22B1012ADD
:1022C0004DD0022A7DD169E06E4D283D2D68C5F3C1
:1022D00040152DB36B4D283D2D68C5F3C1066A4DE1
:1022E00025FA06F4B4FBF0F501EE105AF8EE411AA7
:1022F0009FED661A80EE012A624D10352D68C5F3F8
:10230000080501EE105AB8EE411A32EE011AB7EE86
:10231000002A31EE021A21EE811AF0EE410A1DE088
:10232000594DB5FBF0F501EE105AF8EE411A9FED4C
:10233000571A80EE012A534D10352D68C5F3080554
:1023400001EE105AB8EE411A32EE011AB7EE002A29
:1023500031EE021A21EE811AF0EE410A5EE04C4D98
:10236000B5FBF0F501EE105AB8EE412A9FED471A81
:10237000C0EE011A434D10352D68C5F3080501EE76
:10238000105AB8EE411A31EE811AF7EE001A31EE0A
:10239000211A22EE011AF0EE410A3FE03D4DB5FB55
:1023A000F0F501EE105AF8EE411A9FED381A80EE62
:1023B000012A344D10352D68C5F3080501EE105A79
:1023C00000E00CE0B8EE411A32EE011AB7EE002A36
:1023D00031EE021A21EE811AF0EE410A1EE02C4D78
:1023E000B5FBF0F501EE105AB8EE412A9FED271A21
:1023F000C0EE011A234D10352D68C5F3080501EE16
:10240000105AB8EE411A31EE811AF7EE001A31EE89
:10241000211A22EE011AF0EE410A00BF00BF194D49
:1024200010352D68C5F346256D1C01EE105AB8EE27
:10243000411AC0EE811ABCEEE11A81ED001A114D6D
:1024400010352D68C5F306456D1C01EE105AB8EE27
:10245000411AC0EE811ABCEEE11A81ED011A094D54
:1024600010352D68C5F306656D1C01EE105AB8EEE7
:10247000411AC0EE811ABCEEE11A81ED021A70BD5C
:1024800000000000284402580090D00300000046DD
:1024900000093D0000127A0070B5014600220120BB
:1024A000002300249FED811AB0EE410A9FED7F1AB0
:1024B000F0EE410A7E4D2D6805F003027C4D2D683B
:1024C000C5F305507A4D2D1D2D6805F48073784DA8
:1024D0001C352D68C5F3CC0515FB03F501EE105A2C
:1024E000B8EE411AB0EE410A22B1012A4DD0022ABB
:1024F0007DD169E06E4D283D2D68C5F340152DB3A3
:102500006B4D283D2D68C5F3C1066A4D25FA06F4CA
:10251000B4FBF0F501EE105AF8EE411A9FED661A81
:1025200080EE012A624D18352D68C5F3080501EECD
:10253000105AB8EE411A32EE011AB7EE002A31EE07
:10254000021A21EE811AF0EE410A1DE0594DB5FB49
:10255000F0F501EE105AF8EE411A9FED571A80EE91
:10256000012A534D18352D68C5F3080501EE105AA0
:10257000B8EE411A32EE011AB7EE002A31EE021A15
:1025800021EE811AF0EE410A5EE04C4DB5FBF0F50C
:1025900001EE105AB8EE412A9FED471AC0EE011A1B
:1025A000434D18352D68C5F3080501EE105AB8EEF5
:1025B000411A31EE811AF7EE001A31EE211A22EE9D
:1025C000011AF0EE410A3FE03D4DB5FBF0F501EE9A
:1025D000105AF8EE411A9FED381A80EE012A344D58
:1025E00018352D68C5F3080501EE105A00E00CE01F
:1025F000B8EE411A32EE011AB7EE002A31EE021A95
:1026000021EE811AF0EE410A1EE02C4DB5FBF0F5EB
:1026100001EE105AB8EE412A9FED271AC0EE011ABA
:10262000234D18352D68C5F3080501EE105AB8EE94
:10263000411A31EE811AF7EE001A31EE211A22EE1C
:10264000011AF0EE410A00BF00BF194D18352D6880
:10265000C5F346256D1C01EE105AB8EE411AC0EEC6
:10266000811ABCEEE11A81ED001A114D18352D6862
:10267000C5F306456D1C01EE105AB8EE411AC0EEC6
:10268000811ABCEEE11A81ED011A094D18352D6849
:10269000C5F306656D1C01EE105AB8EE411AC0EE86
:1026A000811ABCEEE11A81ED021A70BD0000000033
:1026B000284402580090D0030000004600093D0065
:1026C00000127A002DE9F04104460025002620681A
:1026D00000F00060B0F1006F30D1606E48B1B0F52D
:1026E000801F0DD0B0F5001F10D0B0F5401F15D1E0
:1026F00013E0F948006840F40030F74908600FE043
:102700000221201D02F0BCFA054609E0022104F175
:10271000240002F04DFB054602E001E0012500BF68
:1027200000BF55B9EC482430006820F44010616EB9
:102730000843E9492431086000E02E43208800F472
:102740008070B0F5807F2DD1606D05281AD2DFE84A
:1027500000F0030A10171800DF48006840F400304A
:10276000DD49086010E00021201D02F089FA0546CD
:102770000AE0002104F1240002F01AFB054603E000
:1027800002E001E0012500BF00BF55B9D248243066
:10279000006820F00700616D0843CF4924310860CC
:1027A00000E02E43208800F40070B0F5007F33D1A4
:1027B000A06D802817D003DC40B140281CD10CE06C
:1027C000C02817D0B0F5807F16D114E0C248006849
:1027D00040F40030C049086010E00021201D02F0E4
:1027E0004FFA05460AE0002104F1240002F0E0FA65
:1027F000054603E002E001E0012500BF00BF55B936
:10280000B5482430006820F4E070A16D0843B24957
:102810002431086000E02E43208800F48060B0F589
:10282000806F38D1D4F8A400B0F5800F19D004DC43
:1028300050B1B0F5001F1DD10DE0B0F5C00F17D09D
:10284000B0F5000F16D114E0A348006840F4003042
:10285000A149086010E00021201D02F011FA054690
:102860000AE0002104F1240002F0A2FA054603E088
:1028700002E001E0012500BF00BF5DB996482C30A1
:10288000006820F46000D4F8A410084392492C3169
:10289000086000E02E43208800F40060B0F5006F6F
:1028A00038D1D4F8A800B0F1007F19D004DC50B1C1
:1028B000B0F1807F1DD10DE0B0F1407F17D0B0F1B5
:1028C000806F16D114E08448006840F400308249DB
:1028D000086010E00021201D02F0D2F905460AE050
:1028E000002104F1240002F063FA054603E002E04F
:1028F00001E0012500BF00BF5DB977482C300068BA
:1029000020F0E060D4F8A810084373492C31086027
:1029100000E02E43206800F00070B0F1007F27D166
:10292000A06CA0B1102804D0202809D030280FD1E5
:102930000CE06948006840F400306749086009E02D
:102940000221201D02F09CF9054603E002E001E0AF
:10295000012500BF00BF55B95F482030006820F056
:102960003000A16C08435C492031086000E02E4330
:10297000208800F48050B0F5805F36D1E06DB0F56E
:10298000005F19D004DC50B1B0F5805F1DD10DE0BF
:10299000B0F5405F17D0B0F5804F16D114E04E4827
:1029A000006840F400304C49086010E00021201D10
:1029B00002F066F905460AE0002104F1240002F065
:1029C000F7F9054603E002E001E0012500BF00BF82
:1029D00055B941482430006820F4E040E16D0843D7
:1029E0003D492431086000E02E43208800F4005067
:1029F000B0F5005F34D1206EB0F5403F1DD007DC4C
:102A000068B1B0F5803F0BD0B0F5003F18D10DE0B4
:102A1000B0F5802F12D0B0F5A02F11D10FE011E04A
:102A20000121201D02F02CF905460BE0012104F1E3
:102A3000240002F0BDF9054604E003E002E001E0F5
:102A4000012500BF00BF55B923482430006820F499
:102A5000E020216E084320492431086000E02E4325
:102A6000208800F48040B0F5804F38D1D4F8AC0015
:102A7000B0F1405F1DD007DC68B1B0F1805F0BD0D2
:102A8000B0F1005F18D10DE0B0F1804F12D0B0F17D
:102A9000A04F11D10FE011E00121201D02F0F0F84C
:102AA00005460BE0012104F1240002F081F90546FE
:102AB00004E003E002E001E0012500BF00BF6DB9C2
:102AC00005482C30006820F0E040D4F8AC100843F2
:102AD00001492C31086002E02C4402582E43208822
:102AE00000F40040B0F5004F26D1E06E98B1B0F18F
:102AF000805F03D0B0F1005F0ED106E0FA480068B5
:102B000040F40030F849086008E00121201D02F07F
:102B1000B7F8054602E001E0012500BF00BF55B946
:102B2000F1482430006820F04050E16E0843EE493F
:102B30002431086000E02E43206800F08070B0F17E
:102B4000807F27D1606CA0B1012804D0022809D071
:102B500003280FD10CE0E448006840F40030E2495B
:102B6000086009E00221201D02F08AF8054603E012
:102B700002E001E0012500BF00BF55B9DA4820306E
:102B8000006820F00300616C0843D74920310860D9
:102B900000E02E43206800F48000B0F5800F7DD166
:102BA000D248006840F48070D0490860FFF70AFA04
:102BB000074606E0FFF706FAC01B642801D9032583
:102BC00005E0CA48006800F480700028F2D000BF19
:102BD0008DBBC5484430006800F44070B4F8B010B4
:102BE00001F44071884214D0BF484430006820F49A
:102BF0004078BD484430006840F48030BA494431E0
:102C000008600846006820F4803008600846C0F874
:102C10000080D4F8B000B0F5807F15D1FFF7D2F96D
:102C2000074609E0FFF7CEF9C01B41F28831884220
:102C300002D9032507E038E0AB4844300068C0F310
:102C400040000028EED000BF4DBB00BFB4F8B0007C
:102C500000F44070B0F5407F0ED1A3481C380068E6
:102C600020F47C51A24AD4F8B000104041EA101080
:102C70009D491C39086007E09B481C38006820F417
:102C80007C5099491C390860974844300068B4F872
:102C9000B010C1F30B010843934901E006E002E0E4
:102CA0004431086002E02E4300E02E43207800F01B
:102CB000010068B3A06F182819D005DC48B10828B6
:102CC00008D0102816D10BE0202811D0282811D1C7
:102CD0000FE011E00121201D01F0D2FF05460BE0BD
:102CE000012104F1240002F063F8054604E003E04A
:102CF00002E001E0012500BF00BF55B97A48283045
:102D0000006820F03800A16F084377492831086037
:102D100000E02E43207800F00200022828D1606FE6
:102D2000062815D2DFE800F003040A11121311E09F
:102D30000121201D01F0A4FF05460BE0012104F153
:102D4000240002F035F8054604E003E002E001E06B
:102D5000012500BF00BF55B963482830006820F046
:102D60000700616F084360492831086000E02E4386
:102D7000207800F0040004282AD1D4F89000062816
:102D800015D2DFE800F003040A11121311E001214B
:102D9000201D01F075FF05460BE0012104F1240020
:102DA00002F006F8054604E003E002E001E0012538
:102DB00000BF00BF5DB94C482C30006820F0070010
:102DC000D4F89010084348492C31086000E02E43A5
:102DD000207800F02000202836D1D4F88C00B0F103
:102DE000405F1DD007DC68B1B0F1805F0BD0B0F15F
:102DF000005F18D10DE0B0F1804F12D0B0F1A04FBC
:102E000011D10FE011E00021201D01F039FF05462E
:102E10000BE0022104F1240001F0CAFF054604E0A2
:102E200003E002E001E0012500BF00BF5DB92E48CC
:102E30002830006820F0E040D4F88C1008432A497C
:102E40002831086000E02E43207800F04000402840
:102E500036D1D4F89800B0F5406F1DD007DC68B1CA
:102E6000B0F5806F0BD0B0F5006F18D10DE0B0F564
:102E7000805F12D0B0F5A05F11D10FE011E000210A
:102E8000201D01F0FDFE05460BE0022104F12400A7
:102E900001F08EFF054604E003E002E001E00125B9
:102EA00000BF00BF5DB910482C30006820F4E0502E
:102EB000D4F8981008430C492C31086000E02E43E8
:102EC000207800F0800080283BD1D4F89C00B0F539
:102ED000C04F24D00EDCA0B1B0F5005F12D0B0F529
:102EE000804F1FD114E000002C44025800480258C3
:102EF000FFFCFF0FB0F5004F12D0B0F5204F11D1FD
:102F00000FE011E00021201D01F0BAFE05460BE0A4
:102F1000022104F1240001F04BFF054604E003E028
:102F200002E001E0012500BF00BF4DB9B2480068D2
:102F300020F46040D4F89C100843AF49086000E0DA
:102F40002E43207800F00800082816D1D4F880001D
:102F5000B0F5805F06D1022104F1240001F028FFC2
:102F600006430AE0A448001F006820F44050D4F84B
:102F700080100843A049091F0860207800F0100065
:102F8000102814D1D4F89400B0F5807F06D1022126
:102F900004F1240001F00CFF064308E096480068A5
:102FA00020F44070D4F894100843934908602068D6
:102FB00000F40020B0F5002F26D1D4F8A00030B1E5
:102FC000B0F5803F09D0B0F5003F0ED10CE00021F4
:102FD000201D01F055FE054609E0022104F1240000
:102FE00001F0E6FE054602E001E0012500BF00BF5A
:102FF0004DB98148006820F44030D4F8A01008434F
:103000007D49086000E02E43206800F48020B0F580
:10301000802F2DD1D4F88400B0F5801F06D0B0F5F4
:10302000001F0CD0B0F5401F11D10FE072482C38B2
:10303000006840F4003070492C39086009E0012133
:1030400004F1240001F0B4FE054602E001E0012590
:1030500000BF00BF5DB96848001F006820F4401041
:10306000D4F8841008436449091F086000E02E4327
:10307000206800F48030B0F5803F24D1E06C18B1B6
:10308000B0F5803F0FD108E05B482C38006840F471
:10309000003059492C39086007E00221201D01F059
:1030A000EFFD054601E0012500BF00BF55B95248BC
:1030B0000C38006820F48030E16C08434E490C392C
:1030C000086000E02E43206800F00050B0F1005F7F
:1030D00005D1022104F1240001F06AFE06432068B4
:1030E00000F40030B0F5003F27D1E06FA0B1B0F59B
:1030F000807F06D0B0F5007F0CD0B0F5407F0CD1BA
:1031000009E03D482C38006840F400303A492C3939
:10311000086004E003E002E001E0012500BF00BF19
:1031200055B93548001F006820F44070E16F08432E
:103130003149091F086000E02E43206800F4801028
:10314000B0F5801F09D12C480838006820F00040F5
:10315000216F0843284908390860206800F0805032
:10316000B0F1805F0AD124484838006820F48040DC
:10317000D4F8B4100843204948390860206800F4A6
:103180000010B0F5001F09D11B480838006820F076
:103190008070A16E0843184908390860206800F063
:1031A0008040B0F1804F11D100BF1348483800680B
:1031B00020F4004010494839086008460068D4F8F7
:1031C000B81008430C494839086000BF206800F077
:1031D0000040B0F1004F09D107480C38006820F0DA
:1031E0004050216D084304490C39086016B900208D
:1031F000BDE8F0810120FBE75844025870B5044651
:103200000D4600268D48006800F00700A8420ED247
:103210008A48006820F0070028438849086008466B
:10322000006800F00700A84201D0012070BD20789E
:1032300000F00200022807D18148006820F00F004A
:10324000E16808437E490860207800F0010000280A
:1032500051D07B48006820F47060A1680843784929
:1032600008606068022807D1754818380068C0F304
:103270004040F8B90120D9E76068032807D17048B9
:1032800018380068C0F34060A0B90120CEE760683C
:10329000012807D16A4818380068C0F3002048B9EF
:1032A0000120C3E7664818380068C0F3800008B9F9
:1032B0000120BBE762480838006820F00700616819
:1032C00008435F4908390860FEF77CFE06466068DF
:1032D000022811D108E0FEF775FE801B41F288310B
:1032E000884201D90320A1E755480838006800F05A
:1032F00038001028EFD13AE06068032811D108E0C7
:10330000FEF760FE801B41F28831884201D903201C
:103310008CE74B480838006800F038001828EFD1D7
:1033200025E06068012811D108E0FEF74BFE801B04
:1033300041F28831884201D9032077E740480838B4
:10334000006800F038000828EFD110E008E0FEF730
:1033500039FE801B41F28831884201D9032065E79C
:1033600037480838006800F038000028EFD13348AB
:10337000006800F00700A8420ED93048006820F02D
:10338000070028432D4908600846006800F0070040
:10339000A84201D0012049E7207800F00400042869
:1033A00007D12748006820F07000216908432449AC
:1033B0000860207800F00800082809D12048001D86
:1033C000006820F07000616908431D49091D08600C
:1033D000207800F01000102809D11948001D00685D
:1033E00020F4E060A16908431549091D08602078B0
:1033F00000F02000202809D111480830006820F092
:103400007000E16908430E490831086000F066F871
:103410000B49096801F470614FF4807292FAA2F2CC
:10342000B2FA82F2D140074A515CC84006490860AE
:103430000020FEF7E7FD0020F8E600000020005223
:1034400018440258106C00082400002410B5FEF740
:10345000DBFE0949096801F00F01012292FAA2F28C
:10346000B2FA82F2D140054A515CC8400449086072
:103470000846006810BD000018440258106C00088F
:103480002800002410B5FFF7E1FF0749096801F0A3
:103490007001102292FAA2F2B2FA82F2D140034AEB
:1034A000515CC84010BD00001C440258106C00085C
:1034B00010B5FFF7CBFF0749096801F4E0614FF44D
:1034C000807292FAA2F2B2FA82F2D140024A515CC0
:1034D000C84010BD1C440258106C000870B501258E
:1034E00000EE905A0022012100230024DFED861A0D
:1034F000B0EE610ADFED841AB0EE611A0020834D50
:103500002D6805F0380535B1082D15D0102D15D0D2
:10351000182D7CD114E07D4D103D2D68C5F340156C
:1035200045B17A4D103D2D68C5F3C106784D25FA99
:1035300006F000E07648E5E07648E3E07648E1E032
:10354000724D18352D6805F00302704D18352D6841
:10355000C5F305116D4D1C352D6805F001036B4D4C
:1035600024352D68C5F3CC0515FB03F501EE905A03
:10357000F8EE611AB0EE610A22B1012A4FD0022A98
:103580007DD16BE0614D103D2D68C5F340152DB325
:103590005E4D103D2D68C5F3C1065D4D25FA06F45C
:1035A000B4FBF1F501EE905AB8EE612ADFED5B1A3B
:1035B000C0EE212A554D20352D68C5F3080501EED2
:1035C000905AF8EE611A72EEA11AF7EE002A71EE27
:1035D000A21A62EE211AB0EE611A1FE04C4DB5FB43
:1035E000F1F501EE905AB8EE612ADFED4C1AC0EE0B
:1035F000212A464D20352D68C5F3080501EE905A65
:10360000F8EE611A72EEA11AF7EE002A00E077E0F8
:1036100071EEA21A62EE211AB0EE611A5EE03D4D23
:10362000B5FBF1F501EE905AB8EE612ADFED3B1AD9
:10363000C0EE212A354D20352D68C5F3080501EE71
:10364000905AF8EE611A72EEA11AF7EE002A71EEA6
:10365000A21A62EE211AB0EE611A3FE02E4DB5FBC0
:10366000F1F501EE905AB8EE612ADFED2C1AC0EEAA
:10367000212A264D20352D68C5F3080500E00EE00F
:1036800001EE905AF8EE611A72EEA11AF7EE002AD6
:1036900071EEA21A62EE211AB0EE611A1EE01D4D03
:1036A000B5FBF1F501EE905AF8EE612ADFED1B1A39
:1036B00080EE212A154D20352D68C5F3080501EE51
:1036C000905AF8EE611A72EE211AB7EE002A71EEE6
:1036D000821A62EEA11AB0EE611A00BF00BF0B4D54
:1036E00020352D68C5F346256D1C00EE905AF8EE86
:1036F000601A81EE212AFCEEC21A11EE900A01E056
:10370000044800BF00BF70BD000000001044025814
:103710000090D00300093D0000127A00000000462E
:1037200070B504460025207800F00100002870D014
:10373000F748006800F0380010280CD0F448006802
:1037400000F03800182812D1F1481830006800F055
:10375000030002280BD1EE4810380068C0F3404047
:10376000002869D06068002866D1012070BD00BFC4
:103770006068B0F5803F08D1E5481038006840F433
:103780008030E349103908602EE0606868B9E0488D
:103790001038006820F48030DD4910390860084690
:1037A000006820F4802008601EE06068B0F5A02F5B
:1037B0000DD1D7481038006840F48020D449103922
:1037C00008600846006840F4803008600CE0D0488B
:1037D0001038006820F48030CD4910390860084660
:1037E000006820F48020086000BF606890B1FEF798
:1037F000E9FB054606E0FEF7E5FB401B642801D91E
:103800000320B3E7C24810380068C0F340400028E6
:10381000F1D011E0FEF7D6FB054606E0FEF7D2FB3D
:10382000401B642801D90320A0E7B948103800687C
:10383000C0F340400028F1D1207800F002000228B7
:1038400047D1B348006800F0380058B1B04800686C
:1038500000F0380018283ED1AD481830006800F05C
:103860000300B8BBAA4810380068C0F3800018B144
:10387000E06808B9012079E7A5481038006820F011
:103880001900E1680843A24910390860FEF79AFB65
:10389000054606E0FEF796FB401B022801D90320EF
:1038A00064E79B4810380068C0F380000028F1D01E
:1038B00097480C38006820F47C304FF47C3292FA40
:1038C000A2F2B2FA82F221699140084390490C3980
:1038D00008604AE0FFE7E06868B38D481038006888
:1038E00020F01900E1680843894910390860FEF7A3
:1038F00069FB054606E0FEF765FB401B022801D97F
:10390000032033E7824810380068C0F380000028A5
:10391000F1D07F480C38006820F47C304FF47C32C2
:1039200092FAA2F2B2FA82F22169914008437849F0
:103930000C39086019E076481038006820F0010062
:10394000734910390860FEF73DFB054606E0FEF7B7
:1039500039FB401B022801D9032007E76C481038C7
:103960000068C0F380000028F1D1207800F010003A
:10397000102877D16648006800F0380008280CD07D
:103980006348006800F03800182823D160481830D8
:10399000006800F0030001281CD15D481038006861
:1039A000C0F3002020B1E069802801D00120DDE6CD
:1039B00057480C38006820F0F8404FF0F84292FA6F
:1039C000A2F2B2FA82F2216A9140084350490C39BE
:1039D000086047E0E06958B34D481038006840F08F
:1039E00080004B4910390860FEF7ECFA054606E006
:1039F000FEF7E8FA401B022801D90320B6E6444846
:103A000010380068C0F300200028F1D040480C387E
:103A1000006820F0F8404FF0F84292FAA2F2B2FAB1
:103A200082F2216A9140084339490C39086019E053
:103A300037481038006820F0800035491039086098
:103A4000FEF7C0FA054606E0FEF7BCFA401B022866
:103A500001D903208AE62E4810380068C0F3002000
:103A60000028F1D1207800F00800082836D16069DC
:103A7000D0B127486430006840F001002449643127
:103A80000860FEF79FFA054606E0FEF79BFA401B2A
:103A9000022801D9032069E61D4864300068C0F39C
:103AA00040000028F1D019E019486430006820F087
:103AB0000100174964310860FEF784FA054606E004
:103AC000FEF780FA401B022801D903204EE6104879
:103AD00064300068C0F340000028F1D1207800F085
:103AE0002000202834D1A069D8B1094810380068D6
:103AF00040F48050064910390860FEF763FA054625
:103B000008E0FEF75FFA401B022803D903202DE6E8
:103B100010440258AF480068C0F340300028F0D08D
:103B200016E0AC48006820F48050AA490860FEF70F
:103B300049FA054606E0FEF745FA401B022801D97E
:103B4000032013E6A3480068C0F340300028F2D1F8
:103B5000207800F0040004287DD19F48006840F4DC
:103B600080709D490860FEF72DFA054606E0FEF7D5
:103B700029FA401B642801D90320F7E5964800681C
:103B800000F480700028F2D000BFA068012808D19E
:103B900090487030006840F001008E497031086034
:103BA0002DE0A06868B98B487030006820F00100F3
:103BB0008849703108600846006820F004000860F9
:103BC0001DE0A06805280DD182487030006840F0E3
:103BD00004008049703108600846006840F0010028
:103BE00008600CE07B487030006820F001007949E3
:103BF000703108600846006820F00400086000BFCB
:103C0000A068A0B1FEF7DEF9054608E0FEF7DAF994
:103C1000401B41F28831884201D90320A6E56D4856
:103C200070300068C0F340000028EFD013E0FEF7CA
:103C3000C9F9054608E0FEF7C5F9401B41F2883195
:103C4000884201D9032091E5624870300068C0F3D2
:103C500040000028EFD1606A00287CD05D48103019
:103C6000006800F03800182876D0606A022874D105
:103C70005848006820F0807056490860FEF7A2F9A5
:103C8000054606E0FEF79EF9401B022801D90320F5
:103C90006CE550480068C0F340600028F2D100BFD6
:103CA000D4E90A1041EA00104A492831096840F273
:103CB000F33291430843474928310860208E401E63
:103CC000C0F30800616B491E4FF47E4202EA4121B5
:103CD0000843218F491ED20102EA014108433C21D9
:103CE000095D491E120202EA016108433949303177
:103CF000086000BF081D00684FF6F87188434FF652
:103D0000F87292FAA2F2B2FA82F2A16C91400843E0
:103D10003049343108602F482C30006820F00C0006
:103D2000216C08432B492C3108600846006820F0BC
:103D30000200616C084327492C310860084600687E
:103D400040F4803008600846006840F400300860A5
:103D50000846006802E03BE038E01FE040F48020C5
:103D600008600846006840F00100086019480068D3
:103D700040F0807017490860FEF724F9054606E018
:103D8000FEF720F9401B022801D90320EEE4114878
:103D90000068C0F340600028F2D019E00D480068C8
:103DA00020F080700B490860FEF70CF9054606E02C
:103DB000FEF708F9401B022801D90320D6E4054884
:103DC0000068C0F340600028F2D101E00120CDE49A
:103DD0000020CBE400440258004802580349096817
:103DE00021F460010143014A116070470404005846
:103DF00070B504462546681EB0F1807F01D30120CE
:103E00000FE0681E4FF0E02148610F214FF0FF30B6
:103E100002F092F900204FF0E0218861072008614C
:103E2000002070BD7047704730B502460B4600BF9A
:103E300092F83C00012801D1022030BD012082F817
:103E40003C0000BF10684168106884680F4D10681E
:103E5000A84203D00E4D1068A84203D121F470018E
:103E60005868014321F070011868014324F0800470
:103E700098680443106841601068846000BF0020A7
:103E800082F83C0000BF00BFD7E7000000000140FF
:103E90000004014010B504460CB9012010BD94F88F
:103EA0003D0028B9002084F83C00204600F00CF8C2
:103EB000022084F83D00211D206801F0B1F90120A5
:103EC00084F83D000020E9E738B504462068B0F1E9
:103ED000804F16D100BF2648006840F001002449F9
:103EE00008600846006800F00100009000BF00BFB5
:103EF000002211461C20FEF735F91C20FEF722F99E
:103F000034E01C492068884216D100BF1848006878
:103F100040F00200164908600846006800F0020000
:103F2000009000BF00BF012211461D20FEF71AF9C4
:103F30001D20FEF707F919E00F492068884215D1C6
:103F400000BF0B48006840F00400094908600846BB
:103F5000006800F00400009000BF00BF02220121B1
:103F60001E20FEF7FFF81E20FEF7ECF838BD00001B
:103F7000E844025800040040000800402DE9F041E8
:103F800004460D46002600BF94F83C00012802D1EB
:103F90000220BDE8F081012084F83C0000BF02202F
:103FA00084F83D00206886684148064026F47F4634
:103FB00020688660286850283BD00CDC202860D020
:103FC00004DC002853D0102865D155E030285DD09E
:103FD000402860D141E0602835D070280DD0B0F580
:103FE000805F03D0B0F5005F55D115E02068806890
:103FF00030490840216888604EE0D5E902136A68BC
:10400000206801F073F9206886682948064046F068
:104010007706206886603FE0D5E902136A68206869
:1040200001F064F92068806840F48040216888606D
:1040300032E0EA686968206801F0C6F9502120681A
:1040400001F060F928E0EA686968206801F0D1F9B8
:104050006021206801F056F91EE0EA68696820686E
:1040600001F0B2F94021206801F04CF914E0002180
:10407000206801F047F90FE01021206801F042F9B3
:104080000AE02021206801F03DF905E03021206898
:1040900001F038F900E000BF00BF012084F83D00C6
:1040A00000BF002084F83C0000BF00BF71E70000A3
:1040B00088FFCEFFF8FFFEFF704710B5044620686A
:1040C0000069C0F34000D8B12068C068C0F3400068
:1040D000B0B16FF0020021680861012020772068EC
:1040E000806900F0030018B12046FFF7E5FF05E006
:1040F000204600F0BEF8204600F0BCF800202077F3
:1041000020680069C0F38000D8B12068C068C0F39F
:104110008000B0B16FF004002168086102202077B0
:104120002068806900F4407018B12046FFF7C4FF92
:1041300005E0204600F09DF8204600F09BF80020A6
:10414000207720680069C0F3C000D8B12068C0683B
:10415000C0F3C000B0B16FF008002168086104200E
:1041600020772068C06900F0030018B12046FFF7EF
:10417000A3FF05E0204600F07CF8204600F07AF826
:104180000020207720680069C0F30010D8B12068B3
:10419000C068C0F30010B0B16FF010002168086172
:1041A000082020772068C06900F4407018B12046CC
:1041B000FFF782FF05E0204600F05BF8204600F0A4
:1041C00059F8002020772068006900F0010058B1FC
:1041D0002068C06800F0010030B16FF00100216874
:1041E0000861204600F047F820680069C0F3C0105D
:1041F00058B12068C068C0F3C01030B16FF08000C3
:10420000216808612046FFF70DFE20680069C0F3B1
:10421000002058B12068C068C0F3C01030B16FF002
:104220008000216808612046FFF7FCFD20680069D6
:10423000C0F3801058B12068C068C0F3801030B15E
:104240006FF0400021680861204600F040F82068C7
:104250000069C0F3401058B12068C068C0F3401036
:1042600030B16FF02000216808612046FFF7DBFDC8
:1042700010BD70477047704770B504460D4600BFCB
:1042800094F83C00012801D1022070BD012084F87F
:104290003C0000BF022084F83D002946204601F082
:1042A0003DF82068C06820F040002168C8602068A0
:1042B000C06820F480402168C860012084F83D0077
:1042C00000BF002084F83C0000BF00BFDDE770475E
:1042D000704770472DE9F04104462068C5692068A1
:1042E00007682068866805F00F08B8F1000F0DD147
:1042F00005F0200050B107F0200010B906F0805002
:1043000020B1204601F066F9BDE8F081B8F1000F58
:1043100072D05D48304018B907F4907000287AD008
:1043200005F0010048B107F4807030B10120216828
:104330000862E06F40F00100E06705F0020048B15C
:1043400006F0010030B1022021680862E06F40F001
:104350000400E06705F0040048B106F0010030B148
:10436000042021680862E06F40F00200E06705F079
:10437000080078B107F0200028B906F0805010B985
:1043800006F0010030B1082021680862E06F40F0BB
:104390000800E067E06F70B305F0200040B107F05F
:1043A000200010B906F0805010B1204601F012F93B
:1043B000E06F00F0080020B92068806800F040003D
:1043C00018B3204601F0E6F82068806800F040004D
:1043D000B8B12068806820F0400021688860606F74
:1043E00058B12A48616F0865606FFCF7E7FE10B1AD
:1043F000606F016D88470DE00DE02046FFF769FF13
:1044000008E02046FFF765FF04E02046FFF761FF64
:104410000020E06778E705F4801078B106F48000AA
:1044200060B14FF4801021680862202084F8790080
:1044300084F87A002046FFF74BFF65E705F080001F
:1044400048B107F0800010B906F4000018B120460A
:1044500001F0D8FD58E705F0400030B107F040000A
:1044600018B1204601F0A6F84EE705F4000040B16F
:1044700007F0804028B12068006820F08040216863
:10448000086000BF40E70000010000107D550008F3
:1044900010B504460CB9012010BDA06900B100E0C0
:1044A00000BF94F8790028B9002084F878002046ED
:1044B00000F02AF8242084F879002068006820F0B1
:1044C000010021680860204601F0CAF8012800D1E7
:1044D000E2E7606B10B1204600F0A1FF2068406861
:1044E00020F49040216848602068806820F02A000D
:1044F000216888602068006840F001002168086039
:10450000204601F001F8C7E710B586B00446142133
:1045100001A8FBF715FF1D492068884234D100BF70
:104520001B48006840F4802019490860084600686C
:1045300000F48020009000BF00BF00BF144808387E
:10454000006840F008001249083908600846006811
:1045500000F00800009000BF00BF4FF440700190D1
:104560000220029000200390022004900720059072
:1045700001A90848FDF7FAFB002202212720FDF7D8
:10458000F1FD2720FDF7DEFD06B010BD004800401C
:10459000E8440258000C025870477047034B6922E8
:1045A00003A1064801F0B0FD00BFFEE7CE6B000896
:1045B00031363A34393A343200000000F46D0008E4
:1045C00038B50446002000906A46012163692068DE
:1045D0009847002802DA6FF0040038BD6A460121CE
:1045E000636920689847002802DA6FF00400F4E756
:1045F000009800F0040008B90120EEE76A460021A7
:10460000636920689847002802DA6FF00400E4E745
:10461000009800F48050B0F5805F1FD0009800F43F
:104620000050B0F5005F07D1009800F48070B0F53D
:10463000807F01D10220D0E7009800F40050B0F54F
:10464000005F01D10320C8E7009800F48070B0F546
:10465000807F01D10420C0E70520BEE76A461F2104
:10466000636920689847002802DA6FF00400B4E715
:10467000009800F4805008B90620AEE7009800F0DA
:104680001C00182801D10220A7E7009800F01C00A8
:10469000082801D10320A0E7009800F01C0014288E
:1046A00001D1042099E7052097E7F8B504460027D3
:1046B00000200090002500266068002854D1A068E2
:1046C00008B1A068804720202060002513E06A46DA
:1046D0001221284663699847002802DA6FF0040621
:1046E00008E0009800F01F00A84202D125600026D3
:1046F00003E000BF6D1C1F2DE9D900BF20681F28F3
:1047000001D96FF002064EBB4FF40042002123692D
:1047100020689847002825DB6A46002163692068E5
:10472000984700281BDBA0698047074611E0A06975
:104730008047C01BB0F5FA7F09D86A46002163693B
:1047400020689847002804DA6FF0040606E06FF04E
:104750000106009800F400400028E8D104E06FF062
:10476000040601E06FF003065EB9A06980470746C2
:1047700000BFA0698047C01BB0F5FA6FF9D90120CE
:1047800060603046F8BD02462AB1C86818B1886832
:1047900008B1086910B94FF0FF30704708689060A1
:1047A0004B68D360CB6853618B6813610B6993616D
:1047B0000020F2E71FB5FDF779FC01208DF800001D
:1047C0001F48019007208DF8080003208DF80B008A
:1047D00001208DF80F0000208DF80E008DF80D00DF
:1047E0008DF801008DF80A008DF809008DF80C0095
:1047F0006846FDF72DFC01208DF80000114801905E
:104800000D208DF8080003208DF80B0000208DF896
:104810000F0001208DF80E0000208DF80D00012002
:104820008DF8010000208DF80A008DF809008DF840
:104830000C006846FDF70CFC0420FDF74DFC1FBD85
:1048400000000430004004302DE9F0439BB0002705
:10485000B846B946002658485849086000208DF8E7
:10486000000080208DF80100E1208DF8020000207A
:104870008DF803008DF804008DF80500C1F804D010
:1048800001214E4801724E49C1604E4901614FF409
:10489000BF614161FCF7F8FE08B1FCF78DFC4748A9
:1048A00002F03CF934214848FBF74AFD21204649F3
:1048B00008604FF4403048610020086100240DE09A
:1048C000C4EB841000EBC410404901EBC00200238C
:1048D00021463A48FCF742FD601CC4B2042CEFD3D9
:1048E0003B493C48FFF74FFF3A48FFF7DEFE06E042
:1048F0000A20FCF7DFFC761CFA2E00D304E03548D2
:10490000FFF75EFE0128F3DD00BF3248FFF758FED7
:104910000546022D06D0032D10D0042D1AD0052DEA
:104920002FD123E04FF400594FF4804801272A4B40
:104930009E222AA12C4801F0E7FB29E04FF0000954
:104940004FF480480127244BA72224A1274801F0D7
:10495000DBFB1DE04FF400594FF0000801271E4B10
:10496000B0221EA1224801F0CFFB11E04FF0000958
:10497000C8460127184BB92218A11E4801F0C4FBF4
:1049800006E0154BBE2215A11B4801F0BDFB00BF80
:1049900000BF77B102A90948FCF700FDCDF82090CF
:1049A000CDF81C8002A90548FDF798F80348FDF7EB
:1049B000E3F81BB0BDE8F0830080024080000024D3
:1049C00060000430000004302C0000240002043099
:1049D0000000002460000024626B000831363A3584
:1049E000333A3231000000005C6D0008C46C0008EE
:1049F000A86D0008106D0008206C000800B587B095
:104A0000142102A8FBF79CFC00BF3148006840F06D
:104A100004002F4908600846006800F00400019077
:104A200000BF00BF00BF0846006840F0800008607B
:104A30000846006800F08000019000BF00BF00BF82
:104A40000846006840F0010008600846006800F071
:104A50000100019000BF00BF00BF0846006840F0A1
:104A6000020008600846006800F00200019000BFE4
:104A700000BF00BF0846006840F008000860084614
:104A8000006800F00800019000BF00BF00BF0846AA
:104A9000006840F0400008600846006800F04000F0
:104AA000019000BF00BF01224FF481410948FDF78A
:104AB00083FA4FF481400290012003900490022079
:104AC000059002A90348FDF751F907B000BD0000A9
:104AD000E04402580004025800B587B0002003905B
:104AE0000490059006900090019002904FF0804055
:104AF00014490860C720486000211248816040F2D4
:104B0000E731C1600021016180218161FFF7C2F9B5
:104B100008B1FCF751FB4FF48050039003A90948FA
:104B2000FFF72CFA08B1FCF747FB2020009080200B
:104B3000029069460348FFF777F908B1FCF73CFBA0
:104B400007B000BDE800002400B589B0142104A816
:104B5000FBF7F6FB002001900290039015481649E0
:104B60000860002048600021134881604FF6FF7103
:104B7000C1600021016180218161FFF78BF908B1DB
:104B8000FCF71AFB072004901020059004A90A489E
:104B9000FFF772FB08B1FCF70FFB2020019080208B
:104BA000039001A90448FFF73FF908B1FCF704FBA3
:104BB00009B000BD000400402801002400B589B000
:104BC000142104A8FBF7BCFB002001900290039085
:104BD000154816490860002048600021134881608C
:104BE0004FF6FF71C1600021016180218161FFF7F3
:104BF00051F908B1FCF7E0FA072004902020059055
:104C000004A90A48FFF738FB08B1FCF7D5FA2020C1
:104C100001900020039001A90448FFF705F908B1AD
:104C2000FCF7CAFA09B000BD000800406801002482
:104C300010B50F480F4908604FF4E130486000217B
:104C40000C488160C16001610C21416100218161DA
:104C5000C161016241628162C16201630020054954
:104C600048630846FFF714FC08B1FCF7A5FA10BD2D
:104C700000480040A801002400BFFEE770477047CD
:104C80002DE9F04104460E4600274848006800F030
:104C90000300032802D10120BDE8F08143482838F1
:104CA000006820F08060414928390860FDF78AF9E2
:104CB000054606E0FDF786F9401B022801D90320CE
:104CC000EAE73A4828380068C0F3C0600028F1D10C
:104CD00000BF3648006820F47C30216840EA01308B
:104CE00032490860A088401EC0F30800A168491E30
:104CF0004FF47E4202EA41210843A189491ED201B4
:104D000002EA01410843217C491E120202EA0161C4
:104D1000084326491031086000BF2448001D006880
:104D200020F0C000616908432049091D0860084659
:104D3000006820F02000A16908431C49091D086093
:104D40002EB90846006840F40020086012E0012EE9
:104D500008D11648001D006840F480101349091D51
:104D6000086007E01148001D006840F400100F497A
:104D7000091D08600D482838006840F080600B4924
:104D800028390860FDF71EF9054606E0FDF71AF917
:104D9000401B022801D903207EE704482838006818
:104DA000C0F3C0600028F1D0384675E728440258A7
:104DB0002DE9F04104460E4600274848006800F0FF
:104DC0000300032802D10120BDE8F08143482838C0
:104DD000006820F08050414928390860FDF7F2F85A
:104DE000054606E0FDF7EEF8401B022801D9032036
:104DF000EAE73A4828380068C0F340700028F1D14B
:104E000000BF3648006820F07C70218840EA0150DD
:104E100032490860A088401EC0F30800A168491EFE
:104E20004FF47E4202EA41210843A189491ED20182
:104E300002EA01410843217C491E120202EA016193
:104E4000084326491831086000BF2448001D006847
:104E500020F44060616908432049091D0860084644
:104E6000006820F40070A16908431C49091D08600E
:104E70002EB90846006840F48000086012E0012E58
:104E800008D11648001D006840F400001349091DB0
:104E9000086007E01148001D006840F080700F496D
:104EA000091D08600D482838006840F080500B4903
:104EB00028390860FDF786F8054606E0FDF782F818
:104EC000401B022801D903207EE7044828380068E7
:104ED000C0F340700028F1D0384675E728440258E6
:104EE00010B500231B4C236000BF00BF00BFBFF301
:104EF0004F8F00BF00BF00BF231F1868C0F34E31A3
:104F000000BFC0F3C90200BF43F6E07303EA4113D8
:104F10004FF0404404EA827423430F4C236000BFE7
:104F200000BF131EA2F10102EED10B1EA1F101017F
:104F3000E7D100BF00BF00BFBFF34F8F00BF00BF6E
:104F400000BF00BF00BF00BFBFF36F8F00BF00BF37
:104F500000BF10BD84ED00E074EF00E010B5002349
:104F6000234C236000BF00BF00BFBFF34F8F00BFC3
:104F700000BF00BF231F1868C0F34E3100BFC0F34D
:104F8000C90200BF43F6E07303EA41134FF0404407
:104F900004EA82742343174C236000BF00BF131E32
:104FA000A2F10102EED10B1EA1F10101E7D100BF78
:104FB00000BF00BFBFF34F8F00BF00BF00BF0C4B4F
:104FC000703B1B6843F48033094C703C236000BF86
:104FD00000BF00BFBFF34F8F00BF00BF00BF00BFC7
:104FE00000BF00BFBFF36F8F00BF00BF00BF10BD89
:104FF00084ED00E060EF00E000BF00BF00BFBFF342
:105000004F8F00BF00BF00BF00BF00BF00BFBFF396
:105010006F8F00BF00BF00BF00201449086000BFB1
:1050200000BF00BFBFF34F8F00BF00BF00BF00BF76
:1050300000BF00BFBFF36F8F00BF00BF00BF0C48B1
:10504000006840F400300A49086000BF00BF00BF9C
:10505000BFF34F8F00BF00BF00BF00BF00BF00BF46
:10506000BFF36F8F00BF00BF00BF704750EF00E07D
:1050700014ED00E0704710B5FCF7AAFF10BD00006A
:1050800000B5CBB04C2138A8FBF75AF9202130A845
:10509000FBF756F9BC2101A8FBF752F92E4800682E
:1050A00020F004002C49086000BF002000902A482E
:1050B0000C30006840F4404027490C310860084635
:1050C000006800F44040009000BF00BF00BF2248CD
:1050D0000C30006800F40050B0F5005FF7D10120FB
:1050E00038900004399002204190022138A8816252
:1050F0000121C16264210163022141638163C163B3
:105100000C210164002141648164FEF709FB08B1B0
:10511000FCF752F83F20309003203190002032906D
:105120000820339040203490359000013690402084
:105130003790022130A8FEF761F808B1FCF73CF87F
:105140000220019000201E9001A8FDF7BBFA08B1D3
:10515000FCF732F84BB000BD0C48025820480068FC
:1051600040F470001E4908601E48006840F00100CD
:105170001C49086000201B4910310860194800686C
:10518000194908401749086000201649183108607D
:10519000091D0860091D0860124928310860091DB1
:1051A0000860091D0860091D0860091D0860091DC7
:1051B0000860091D0860091D08600A48006820F49D
:1051C00080200849086000200649603108600120FD
:1051D00006490860C006024980390860704700002F
:1051E00088ED00E0004402587FEDF6EA08810051A6
:1051F00010B50248FEF761FF10BD0000E800002472
:1052000010B50248FEF759FF10BD00002801002428
:1052100010B50248FEF751FF10BD000068010024E0
:1052200010B500220288294B98420ED0B0F1804F71
:105230000BD0274B984208D0264B984205D0264BDE
:10524000984202D0254B984203D122F070024B685D
:105250001A431E4B984217D0B0F1804F14D01C4B0C
:10526000984211D01B4B98420ED01B4B98420BD04A
:105270001A4B984208D01A4B984205D0194B9842C5
:1052800002D0194B984203D122F44072CB681A43E2
:1052900022F080034C6943EA040202808B68C362F7
:1052A0000B880385094B98420BD00C4B984208D0D1
:1052B0000B4B984205D00B4B984202D00A4B9842B8
:1052C00001D10B8A03860123436110BD0000014018
:1052D0000004004000080040000C004000040140B1
:1052E00000400140004401400048014030B50C46F8
:1052F0000021816821F47F4142EA032525432943A7
:10530000816030BD0A4600218168034B194042F09C
:1053100007031943816070478FFFCFFF2DE9F041EC
:1053200004460D4600260027B046206886682448BB
:1053300006406868064323480640286806432068FC
:105340008660686800F00F01002935D10011082837
:1053500032D2DFE800F02D2E2F300B212704D5E9C3
:105360000313AA682068FFF7C1FF26E02068D0F881
:1053700020802068006A20F001002168086220680F
:10538000876927F0F007286947EA001720688761D6
:105390002068C0F8208010E02A69A968206800F021
:1053A00013F80AE02A69A968206800F022F804E0EE
:1053B00003E002E001E000E000BF00BFBDE8F081D3
:1053C0008FFFCFFFF8FFFEFF30B50B4614460021DC
:1053D0000022026A056A25F001050562816921F053
:1053E000F00141EA041122F00A021A4381610262CB
:1053F00030BD30B50B46144600210022056A25F069
:10540000100505628169026A21F4704141EA0431A4
:1054100022F0A00242EA03128161026230BD90F8DC
:10542000341001F0010139B10168496821F40031FB
:10543000826B11430268516090F8341001F0020150
:1054400039B10168496821F48031C26B11430268A7
:10545000516090F8341001F0040139B101684968D5
:1054600021F48021026C11430268516090F83410DD
:1054700001F0080139B10168496821F40041426C2A
:1054800011430268516090F8341001F0100139B1F5
:105490000168896821F48051826C1143026891602F
:1054A00090F8341001F0200139B10168896821F4C5
:1054B0000051C26C11430268916090F8341001F001
:1054C000400199B10168496821F48011026D1143CE
:1054D00002685160016DB1F5801F07D1016849680C
:1054E00021F4C001426D11430268516090F83410FC
:1054F00001F0800139B10168496821F40021826D11
:10550000114302685160704738B5044600250020F9
:10551000E067FCF757FD05462068006800F00800CA
:1055200008280CD16FF07E402B4600224FF400116A
:105530000090204600F0A7FD08B1032038BD206888
:10554000006800F0040004280CD16FF07E402B4668
:1055500000224FF480010090204600F094FD08B135
:105560000320EBE7202084F8790084F87A0000BF5C
:10557000002084F8780000BF00BFDFE770B5054663
:10558000AC6B0020A4F86A00A4F862002046FEF785
:10559000A0FE70BD0168096821F490710268116075
:1055A0000168896821F0010102689160202180F87A
:1055B0007A10704710B504462068006820F040005B
:1055C00021680860202084F879002046FEF7E5FF76
:1055D000002010BD2DE9F0410446B4F86C7094F839
:1055E0007A00222833D12068858CA068B0F5805FCE
:1055F00009D1206938B9666E05EA07003080606E0F
:10560000801C606605E0F8B22840626E511C61663D
:105610001070B4F86A00401E80B2A4F86A00A0B905
:105620002068006820F49070216808602068806815
:1056300020F0010021688860202084F87A0020464C
:10564000FEF7AAFF0020BDE8F0810020FBE72068FC
:10565000008B40F00800216808830220F3E7000077
:105660002DE9F04F89B0044600254FF08008A94687
:10567000AA4600200890FA492068884201D10120FA
:1056800000E0002000B100E000BFA06AB0F1005FC0
:1056900000D100BF2169A068084361690843E1693E
:1056A00040EA0105A06A054320680068ED4908400A
:1056B0002843216808602068406820F44050E16871
:1056C000084321684860A569E5492068884201D1FE
:1056D000012000E0002008B9206A0543A06AB0F16B
:1056E000005F03D1D4E90B010843054320688068BB
:1056F000DD4908402843216888602068C06A20F09E
:105700000F00616A08432168C86200BFD74920685A
:10571000884224D1D648006800F03800182814D0F8
:1057200005DC48B108280AD0102817D10AE0202843
:105730000ED0282812D10EE04FF001080EE04FF0F5
:1057400004080BE04FF0400808E04FF0080805E0BF
:105750004FF0100802E04FF0200800BF17E1C549E4
:10576000206888421DD1C248006800F00700062862
:1057700016D2DFE800F00306090C0F124FF0000804
:105780000EE04FF004080BE04FF0400808E04FF047
:10579000080805E04FF0100802E04FF0200800BFB5
:1057A000F5E0B549206888421DD1B148006800F095
:1057B0000700062816D2DFE800F00306090C0F12D6
:1057C0004FF000080EE04FF004080BE04FF04008E7
:1057D00008E04FF0080805E04FF0100802E04FF035
:1057E000200800BFD3E0A549206888421DD1A04809
:1057F000006800F00700062816D2DFE800F0030674
:10580000090C0F124FF000080EE04FF004080BE0F7
:105810004FF0400808E04FF0080805E04FF010088E
:1058200002E04FF0200800BFB1E0954920688842AF
:105830001DD18F48006800F00700062816D2DFE867
:1058400000F00306090C0F124FF000080EE04FF0B5
:1058500004080BE04FF0400808E04FF0080805E0AE
:105860004FF0100802E04FF0200800BF8FE085499C
:105870002068884224D17E48006800F0380018284B
:1058800014D005DC48B108280AD0102817D10AE046
:1058900020280ED0282812D10EE04FF001080EE08B
:1058A0004FF004080BE04FF0400808E04FF0080804
:1058B00005E04FF0100802E04FF0200800BF66E05E
:1058C0007149206888421DD16948006800F00700CE
:1058D000062816D2DFE800F00306090C0F124FF07D
:1058E00000080EE04FF004080BE04FF0400808E01D
:1058F0004FF0080805E04FF0100802E04FF02008D4
:1059000000BF44E06149206888421DD158480068C2
:1059100000F00700062816D2DFE800F00306090CA5
:105920000F124FF000080EE04FF004080BE04FF0AC
:10593000400808E04FF0080805E04FF0100802E0CA
:105940004FF0200800BF22E04549206888421ED160
:105950004748001D006800F00700062816D2DFE85F
:1059600000F00306090C0F124FF002080EE04FF092
:1059700004080BE04FF0400808E04FF0080805E08D
:105980004FF0100802E04FF0200800BF00BF00BF3A
:1059900033492068884201D1012000E0002000281E
:1059A0005DD00025B8F1100F33D009DCB8F1020F3B
:1059B00010D0B8F1040F11D0B8F1080F2ED117E0B4
:1059C000B8F1200F27D0B8F1400F0CD0B8F1800FFC
:1059D00024D124E0FCF734FC054623E005A8FCF7BD
:1059E00045FC069D1EE002A8FCF756FD039D19E04C
:1059F0001F4854380068C0F3401040B11C48543868
:105A00000068C0F3C101224820FA01F500E0204DF2
:105A100008E0204D06E04FF4004503E000BF012000
:105A2000089000BF00BF002D0AD0606800EB400066
:105A3000A84203D860680003A84202D2012008905F
:105A4000D4E2B8F1100F7CD026DCB8F1020F2DD0D3
:105A5000B8F1040F52D0B8F1080F73D19EE03FE1C6
:105A6000000C0058F369FFCFFFF4FF110010014054
:105A7000544402580044004000480040004C00409C
:105A8000005000400014014000780040007C0040BD
:105A90000090D00300093D00B8F1200F7DD0B8F18F
:105AA000400F54D0B8F1800FD7D109E1FCF7C8FB03
:105AB00000270646FB49606A31F810C062463B4643
:105AC00030463946FAF704FC4FF48076002203464C
:105AD000A3FB060701FB067103FB0213616849087B
